:1000000017EF0CF0160FF66E000EF722000EF86ECA
:100010000900F55012000000000000000000000080
:10002000000000000000000038FCFC380000000068
:10003000000D0D000000000E1E00001E0E0000004E
:1000400000000000000020F8F820F8F82000020F5F
:100050000F020F0F0200387C444747CC9800060C73
:100060000838380F070030300080C06030000C06C0
:100070000301000C0C0080D87CE4BCD84000070FC2
:100080000808070F080000101E0E00000000000006
:100090000000000000000000F0F80C040000000068
:1000A00003070C0800000000040CF8F0000000003A
:1000B000080C0703000080A0E0C0C0E0A0800002A0
:1000C000030101030200008080E0E0808000000066
:1000D000000303000000000000000000000000001A
:1000E000101E0E0000008080808080808000000054
:1000F0000000000000000000000000000000000000
:10010000000C0C00000000000080C06030000C06F5
:10011000030100000000F8F80CC40CF8F00003071D
:100120000C080C070300001018FCFC00000000087D
:10013000080F0F080800080C84C4643C18000E0F58
:100140000908080C0C00080C444444FCB800040CDA
:100150000808080F0700C0E0B098FCFC8000000011
:1001600000080F0F08007C7C444444C48400040C45
:100170000808080F0700F0F84C4444C08000070F3F
:100180000808080F07000C0C0484C47C3C00000025
:100190000F0F00000000B8FC444444FCB800070FF7
:1001A0000808080F0700387C444444FCF8000008A5
:1001B00008080C07030000000030300000000000B9
:1001C00000060600000000000030300000000000C3
:1001D000080E060000000080C06030180800000013
:1001E0000103060C08000020202020202000000130
:1001F0000101010101000008183060C08000000802
:100200000C0603010000181C04C4E43C18000000A4
:10021000000D0D000000F0F008C8C8F8F000070F4E
:10022000080B0B0B0100E0F0988C98F0E0000F0F2A
:100230000000000F0F0004FCFC4444FCB800080F51
:100240000F08080F0700F0F80C04040C180003074F
:100250000C08080C060004FCFC040CF8F000080F65
:100260000F080C07030004FCFC44E40C1C00080FFE
:100270000F08080C0E0004FCFC44E40C1C00080FE2
:100280000F0800000000F0F80C84848C980003072D
:100290000C0808070F00FCFC404040FCFC000F0F5E
:1002A0000000000F0F00000004FCFC040000000030
:1002B000080F0F08000000000004FCFC0400070FFA
:1002C00008080F07000004FCFCC0E03C1C00080FFD
:1002D0000F00010F0E0004FCFC0400000000080FDA
:1002E0000F08080C0E00FCFC387038FCFC000F0FE7
:1002F0000000000F0F00FCFC3870E0FCFC000F0F4A
:100300000000000F0F00F8FC040404FCF800070FC5
:100310000808080F070004FCFC44447C3800080F60
:100320000F0800000000F8FC040404FCF800070FAC
:10033000080E3C3F270004FCFC44C4FC3800080FB6
:100340000F00000F0F00183C6444C49C1800060EF8
:100350000808080F0700001C0CFCFC0C1C00000027
:10036000080F0F080000FCFC000000FCFC00070F59
:100370000808080F0700FCFC000000FCFC0001035B
:10038000060C06030100FCFC000000FCFC00070F4B
:100390000E030E0F07000C3CF0E0F03C0C000C0FBD
:1003A0000301030F0C00000C7CC0C07C3C0000006B
:1003B000080F0F0800001C0C84C4643C1C000E0FC6
:1003C0000908080C0E000000FCFC040400000000FA
:1003D0000F0F080800003870E0C080000000000027
:1003E000000103070E0000000404FCFC00000000F4
:1003F00008080F0F0000080C0603060C0800000098
:1004000000000000000000000000000000002020AC
:10041000202020202020000003070400000000000E
:1004200000000000000000A0A0A0E0C00000070F36
:100430000808070F080004FCFC2060C08000000FC3
:100440000F08080F0700C0E0202020604000070FC1
:100450000808080C040080C06024FCFC0000070FA2
:100460000808070F0800C0E0A0A0A0E0C000070F28
:100470000808080C040040F8FC440C180000080FA1
:100480000F0800000000C0E02020C0E02000276F1F
:1004900048487F3F000004FCFC4020E0C000080FFB
:1004A0000F00000F0F00000020ECEC000000000027
:1004B000080F0F0800000000000020ECEC000030E6
:1004C0007040407F3F0004FCFC80C0602000080FAB
:1004D0000F01030E0C00000004FCFC0000000000F3
:1004E000080F0F080000E0E060C060E0C0000F0FE0
:1004F0000007000F0F0020E0C02020E0C000000F28
:100500000F00000F0F00C0E0202020E0C000070F08
:100510000808080F070020E0C02020E0C000407F4E
:100520007F48080F0700C0E02020C0E02000070F30
:1005300008487F7F400020E0C06020E0C000080F36
:100540000F080000000040E0A02020604000040CE4
:1005500009090B0E04002020F8FC202000000000F8
:10056000070F080C0400E0E00000E0E00000070FC7
:100570000808070F080000E0E00000E0E0000003CA
:10058000070C0C070300E0E0008000E0E000070F2C
:100590000C070C0F07002060C080C0602000080C12
:1005A0000703070C0800E0E0000000E0E000474F10
:1005B0004848683F1F00606020A0E06020000C0EEB
:1005C0000B09080C0C00004040F8BC0404000000BB
:1005D00000070F080800000000BCBC00000000007D
:1005E000000F0F000000000404BCF84040000008A9
:1005F000080F0700000043485049443A253032585C
:1006000020004143433A2530325800004D41473ADB
:100610002530325800004759523A253032580000F0
:10062000584C3A25334C64200D0A0000594C3A25A9
:10063000334C64200D0A00005A4C3A25334C642098
:100640000D0A0D0A00005265636F72743A25344C2E
:100650007520000058206461746120203A20253301
:100660004C64200059206461746120203A202533B5
:100670004C6420005A206461746120203A202533A4
:100680004C64200058443A25334C64200D0A000085
:1006900059443A25334C64200D0A00005A443A2547
:1006A000334C64200D0A0D0A00004D6978616C69B5
:1006B000730050617061696F616E6E6F75003230EA
:1006C000323400002050524F4A454354200D0A0056
:1006D0006361736520303A20436F6E74696E756F85
:1006E00075736C792072656164696E672073656EDD
:1006F000736F7220646174610A0D00006361736539
:1007000020313A20537461746520686173206368F6
:10071000616E6765642E0A0D000050415553450017
:100720006361736520323A2052454144205341565B
:10073000452044415441200A0D004558504F525421
:1007400020444154413A25334C750000584C3A2519
:10075000334C64200D0A0000594C3A25334C642078
:100760000D0A00005A4C3A25334C64200D0A0D0A3C
:100770000000436F756E7465725F446174613A2066
:1007800025344C750A0D000046494E495348000077
:10079000170EC66EC76EF70ECB6E61EF0CF01D0E16
:1007A000EA6E480EE96EEF500DE00A0E016E006A27
:1007B000002EFED7012EFBD75F0E006E002EFED757
:1007C000EF2EF3D71200080E016E00D0BF92C79231
:1007D00000D000001D015637BF94D8B0C784D8A000
:1007E000C794C782CFA2FED7012E01D002D000014C
:1007F000ECD700D0BF92C7920000C78400D00000A1
:1008000000D00000C782CFA2FED7016A00D000004E
:10081000CFB40180BF92C792BF94C7940001120069
:10082000C80E1D01486F0001BADFC78400D0C7821F
:1008300000D00000BF94C79400D0BF92C792780E3A
:100840001D01566F0001BFDF800E1D01566F0001B4
:10085000BADFAE0E1D01566F0001B5DF800E1D011F
:10086000566F0001B0DFD50E1D01566F0001ABDFE2
:10087000800E1D01566F0001A6DF800E1D01566F10
:100880000001A1DF800E1D01566F00019CDFA80E44
:100890001D01566F000197DF800E1D01566F00018C
:1008A00092DF3F0E1D01566F00018DDF800E1D018E
:1008B000566F000188DFD30E1D01566F000183DFE4
:1008C000800E1D01566F00017EDF1D01566B000179
:1008D0007ADF800E1D01566F000175DF8D0E1D0140
:1008E000566F000170DF800E1D01566F00016BDF37
:1008F000140E1D01566F000166DF800E1D01566F3C
:10090000000161DF400E1D01566F00015CDF800EAB
:100910001D01566F000157DFA60E1D01566F000125
:1009200052DF800E1D01566F00014DDFA40E1D0128
:10093000566F000148DF800E1D01566F000143DF36
:10094000A10E1D01566F00013EDF800E1D01566F86
:10095000000139DFC80E1D01566F000134DF800E23
:100960001D01566F00012FDFDA0E1D01566F0001C9
:100970002ADF800E1D01566F000125DF120E1D01BA
:10098000566F000120DF800E1D01566F00011BDF36
:10099000810E1D01566F000116DF800E1D01566F7E
:1009A000000111DF6100A5F456FD0DDF800E1D0171
:1009B000566F000108DFD90E1D01566F000103DFDD
:1009C000800E1D01566F0001FEDEF10E1D01566FF7
:1009D0000001F9DE800E1D01566F0001F4DEDB0E12
:1009E0001D01566F0001EFDE800E1D01566F0001E4
:1009F000EADE400E1D01566F0001E5DE800E1D018E
:100A0000566F0001E0DEAF0E1D01566F0001DBDE08
:100A1000C7940000C782CFA2FED700D000D000004C
:100A2000C78400D067EF0CF0C78400D0C78200D025
:100A30000000BF94C79400D0BF92C792780E1D01EA
:100A4000566F0001C0DE800E1D01566F0001BBDE37
:100A5000B00E1D015413670051F556FD0001B3DEC1
:100A60001A0E006E002EFED70000C7940000C78249
:100A7000CFA2FED700D000D00000C78400D0120063
:100A8000C78400D0C78200D00000BF94C79400D0B4
:100A9000BF92C792780E1D01566F000194DE800E42
:100AA0001D01566F00018FDE1D015439006E0F0EBF
:100AB000001600501009556F6100A1F356FD0001AA
:100AC00082DE800E1D01566F00017DDE1D01545136
:100AD0000F0B556F6100A1F356FD000174DEC79442
:100AE0000000C782CFA2FED700D000D00000C7848C
:100AF00000D012001D013D6B3D51070836E3670031
:100B0000F5F454FD000190DF1D01546B0001B8DFC6
:100B1000C78400D0C78200D00000BF94C79400D023
:100B2000BF92C792780E1D01566F00014CDE400E39
:100B30001D01566F000147DE1D013E6B3E517F08CF
:100B400008E36700F1F456FD00013DDE1D013E2B78
:100B5000F5D7C7940000C782CFA2FED700D000D03F
:100B60000000C78400D03D2BC7D70001120037C555
:100B7000EAF436C5E9F41D015151EF6EE92AD8B403
:100B8000EA2AEF6A362AD8B4372A0001120009008F
:100B9000F55217E06100D9F33CFD6100DDF33DFD46
:100BA0006100E1F33EFD6100D5F351FDE0DF670038
:100BB000F0F4F6F46700F4F4F7F46700F8F4F8F4EE
:100BC000E6D712001D0156515803F3C401F5F4C4D1
:100BD00000F55903F350002657515803F3500020F5
:100BE000026E000112001D014F51080DF350536FAA
:100BF000670041F554FD000117DF67004DF554FD16
:100C00003FDFC78400D0C78200D00000BF94C794E4
:100C100000D0BF92C792780E1D01566F0001D3DD40
:100C2000400E1D01566F0001CEDD1D01526B525169
:100C3000070829E3200E515D556F576B6100A1F342
:100C400056FD596B100E586F0001BCDF610009F4AE
:100C500055FD610005F454FD1D0152515425016EEE
:100C6000000E5521036E015003C5F7F4000102EC9C
:100C700000F01D01546F6100A1F356FD0001A3DDDA
:100C80001D01522BD4D7502B4F51080DF350536FE9
:100C9000670041F554FD0001C7DE67004DF554FDC6
:100CA000EFDEC78400D0C78200D00000CFA2FED7FD
:100CB000BF94C79400D0BF92C792780E1D01566FA3
:100CC000000181DD400E1D01566F00017CDD080E24
:100CD0001D01526F52510F0829E3200E515D556FCF
:100CE000576B6100A1F356FD596B100E586F000150
:100CF00069DF610009F455FD610005F454FD1D0133
:100D000052515425016E000E5521036E015003C54A
:100D1000F7F4000102EC00F01D01546F6100A1F333
:100D200056FD000150DD1D01522BD4D7C7940000A1
:100D3000C782CFA2FED700D000D00000C78400D069
:100D40000001BAEF06F0670025F54DFD670021F5BB
:100D50004CFD670034F5EAF41D014C51E96E610069
:100D6000BDF351FD670029F54FFD67002DF550FDDE
:100D7000000139D71D014C2BD8B44D2B4A2B6700ED
:100D800034F5EAF44C51E96EEF52D8B403D00001C7
:100D9000E0D71D01000112000900F55219E06100C1
:100DA000D9F33CFD6100DDF33DFD6100E1F33EFD63
:100DB000F550B7A2FED70201C96F6700F0F4F6F450
:100DC0006700F4F4F7F46700F8F4F8F40001E4D7EE
:100DD0001200080E016E0A0E006E002EFED7C0969D
:100DE000C8960B0E006E002EFED71D014837C09826
:100DF000D8B0C888D8A0C898C886D0A6FED7012E7B
:100E000001D002D00001E7D70A0E006E002EFED7F7
:100E1000C096C8960000C8880B0E006E002EFED744
:100E20000B0E006E002EFED7C886D0A6FED7016A34
:100E30000B0E006E002EFED7D0B80180C096C8966B
:100E4000C098C89800011200C8880A0E006E002ED3
:100E5000FED7C8860B0E006E002EFED7C098C8982D
:100E60000A0E006E002EFED7C096C896500E1D01C9
:100E7000486F0001AEDF3D0E1D01486F0001A9DF84
:100E80001D01486B0001A5DFC8980000C886D0A6E8
:100E9000FED70A0E006E002EFED700D00000C888D4
:100EA0000A0E006E002EFED7020E1D013C6FFA0ED8
:100EB000486F000174DC1D013C2FF9D7C8880A0E69
:100EC000006E002EFED7C8860B0E006E002EFED7D9
:100ED000C098C8980A0E006E002EFED7C096C8961D
:100EE000500E486F000175DF3E0E1D01486F000176
:100EF00070DF1D01486B00016CDFC8980000C886D8
:100F0000D0A6FED70A0E006E002EFED700D000003D
:100F1000C8880A0E006E002EFED7020E1D013C6F1F
:100F2000FA0E486F00013BDC1D013C2FF9D7C88841
:100F30000A0E006E002EFED7C8860B0E006E002E25
:100F4000FED7C098C8980A0E006E002EFED7C09635
:100F5000C896500E486F00013CDF3D0E1D01486FE2
:100F6000000137DF0C0E1D01486F000132DFC89809
:100F70000000C886D0A6FED70A0E006E002EFED74F
:100F800000D00000C8880A0E006E002EFED7020EA8
:100F90001D013C6FFA0E486F000101DC1D013C2F62
:100FA000F9D70001D0EF0CF0080E1D01496F610068
:100FB00001F44AFDC8880B0E006E002EFED7C886CD
:100FC000D0A6FED7D0B8D880D0A8D89001360A0EC7
:100FD000006E002EFED7C896C096492FEBD7C88862
:100FE0000B0E006E002EFED7C0984A51D8A4C898A8
:100FF0000000C886D0A6FED70A0E006E002EFED7CF
:10100000C096C8960B0E006E002EFED7C098C898EA
:101010000001120009006100D9F349FD6100DDF310
:101020004AFD6100E1F34BFD6100D5F351FD9FDD09
:10103000670024F5F6F4670028F5F7F467002CF54F
:10104000F8F41D01482F01D002D00001E3D70001C0
:1010500012001D0141BF12D00F0E006E4039001664
:101060000A0E005C03E2300E002602D04151002639
:10107000610001F451FD00017ADD1D010F0E4017E2
:101080000A0E405D02E2300E02D0419F41514027DE
:10109000670001F551FD00016ADD1200C8880A0EE3
:1010A000006E002EFED7C8860B0E006E002EFED7F7
:1010B000C098C8980A0E006E002EFED7C096C8963B
:1010C000500E1D01486F000184DE1D01486B0001B8
:1010D00080DEC8880A0E006E002EFED7C8860B0E72
:1010E000006E002EFED7D0A6FED7C098C8980A0E74
:1010F000006E002EFED7C096C896510E1D01486F97
:10110000000167DE010E006E4FDF610005F43EFD59
:10111000010E006E49DF610005F43DFD010E006E19
:1011200043DF610005F43FFD006A3EDF610005F426
:101130003CFDC8980000C886D0A6FED70A0E006EF7
:10114000002EFED700D00000C8880A0E006E002EC8
:10115000FED7050E376E070E366EF60EF66E050ECE
:10116000F76E000EF86E060E1D01486F000152DF8B
:101170006700F9F440FD370E1D01416F000169DF82
:10118000200E1D01516F0001F2DC050E1D01496F9B
:10119000070E486F4A6B4B6B0001D5DD050E376EAD
:1011A000070E366E020EF66E060EF76E000EF86E25
:1011B000040E1D01486F00012DDF6700F5F440FDAE
:1011C000370E1D01416F000144DF050E1D01496FFF
:1011D000070E486F4A6B020E4B6F0001B4DD050E1F
:1011E000376E070E366E0C0EF66E060EF76E000E9C
:1011F000F86E040E1D01486F00010CDF6700FDF45E
:1012000040FD370E1D01416F000123DF050E1D015A
:10121000496F070E486F4A6B040E4B6F000193DD58
:10122000050E376E070E366E160EF66E060EF76E4C
:10123000000EF86E040E1D01486F0001EBDE670022
:10124000F1F440FD370E1D01416F000102DF050E74
:101250001D01496F070E486F4A6B060E4B6F000168
:1012600072DD100E1D01406FFA0E486F0001CFECC9
:1012700003F01D01402FF8D70001DEEF0CF009004C
:101280006100D9F349FD6100DDF34AFD6100E1F33E
:101290004BFDF550B7A2FED70201C96F670024F5D8
:1012A000F6F4670028F5F7F467002CF5F8F41D0153
:1012B000482F01D002D00001E2D7000112006100E6
:1012C000A9F350FD6100A5F34FFD1D0149AF08D002
:1012D0004F8F4FA94F2B481F491F482BD8B4492B7C
:1012E0004939F0094B6F4B27E20F4C6F320F4E6FAD
:1012F00049510F0B4C274C274E27E90F4D6F4D27B7
:101300004D2748390F0B4D274E274D374E374E1F6F
:101310004E3748510F0B4E274B37070E4A6F0A0EB8
:101320004D074E27FDE34C074D27FDE34B074C27A8
:10133000FDE34A074B27FDE31D0EEA6E4A0EE96EF8
:10134000070E4F154F9DED524F1507E14FB9EE5265
:101350004FB903D0200E006E21D0E926000EEA22FC
:10136000E9504E0804E1EA501D0801E14F8DEF50AD
:10137000006E08E14FBD06D04FB916D04FB702D06E
:10138000200E0BD04FAF06D02D0E006EED504F9DAE
:101390004F9F04D04F874F99300E00260050B7A2C0
:1013A000FED70201C96F1D01EE504FADD9D7000124
:1013B00012006100A9F350FD6100A5F34FFD1D016E
:1013C0004939F0094B6F4B27E20F4C6F320F4E6FCC
:1013D00049510F0B4C274C274E27E90F4D6F4D27D6
:1013E0004D2748390F0B4D274E274D374E374E1F8F
:1013F0004E3748510F0B4E274B37070E4A6F0A0ED8
:101400004D074E27FDE34C074D27FDE34B074C27C7
:10141000FDE34A074B27FDE31D0EEA6E4A0EE96E17
:10142000070E4F154F9DE926000EEA22E9504E089F
:1014300004E1EA501D0801E14F8DEF50006E08E114
:101440004FBD06D04FB91BD04FB702D0200E03D0EE
:101450004F874F99300E00266100A9F349FD6100C6
:10146000A5F348FD610001F451FD0001B7EC05F062
:10147000670024F5EAF4670020F5E9F41D01EE5059
:101480004FADD4D700011200C8880A0E006E002E9E
:10149000FED7C8860B0E006E002EFED7C098C898E7
:1014A0000A0E006E002EFED7C096C896500E1D0183
:1014B000486F00018EDC280E1D01486F000189DC99
:1014C000C8880A0E006E002EFED7C8860B0E006E6E
:1014D000002EFED7D0A6FED7C098C8980A0E006E80
:1014E000002EFED7C096C896510E1D01486F000110
:1014F00070DC010E006E58DD610005F43CFD010E4C
:10150000006E52DD610005F43DFD010E006E4CDD04
:10151000610005F43EFD010E006E46DD610005F43C
:101520003FFD010E006E40DD610005F440FD006AE4
:101530003BDD610005F441FDC8980000C886D0A6D7
:10154000FED70A0E006E002EFED700D00000C8881D
:101550000A0E006E002EFED71D01496B6700F5F4E0
:1015600048FD670021F549FD486B48513C11006E6C
:101570004951036E0050426F61000DF443FD496B09
:101580006700FDF448FD670021F549FD486B4851AF
:101590003E11006E4951036E0050446F61000DF41E
:1015A00045FD496B670005F548FD670021F549FDDC
:1015B000486B48514011006E4951036E0050466F10
:1015C00061000DF447FD67000CF52BF5670008F589
:1015D0002AF5670014F52DF5670010F52CF5670066
:1015E0001CF52FF5670018F52EF5200EF66E060E89
:1015F000F76E000EF86E030E486F000140DE030E1A
:10160000E96E67000DF549FD670009F548FD57DEF5
:10161000270EF66E060EF76E000EF86E030E1D0115
:10162000486F00012CDE2C0EF66E060EF76E000ED3
:10163000F86E030E1D01486F000121DE030EE96EF6
:10164000670015F549FD670011F548FD38DE330EDA
:10165000F66E060EF76E000EF86E030E1D01486F53
:1016600000010DDE380EF66E060EF76E000EF86EF7
:10167000030E1D01486F000102DE030EE96E6700D4
:101680001DF549FD670019F548FD19DE3F0EF66EA0
:10169000060EF76E000EF86E050E1D01486F000174
:1016A000EEDD050E376E070E366E460EF66E060E32
:1016B000F76E000EF86E070E1D01486F0001AADCE0
:1016C000010EE96E6100A1F449FD61009DF448FD41
:1016D00070DE200E1D01516F0001B7EC05F0050E04
:1016E0001D01496F070E486F050E4A6F020E4B6FC2
:1016F0000001A3EC06F00A0E1D01486F0001CFECBB
:1017000003F034EF0DF0D8902734026E2834036EC6
:101710000250380FE96E050E0320EA6E2BC5ECF47B
:10172000ED522AC5EFF4D8902734026E2834036EA8
:101730000250380FE96E0D0E0320EA6E2DC5ECF451
:10174000ED522CC5EFF4D8902734026E2834036E86
:101750000250380FE96E150E0320EA6E2FC5ECF427
:10176000ED522EC5EFF4272AD8B4282A3BEF0DF00E
:101770006100A9F344FD6100A5F343FD1D013D395E
:10178000F0093F6F3F27E20F406F320F426F3D512C
:101790000F0B402740274227E90F416F4127412780
:1017A0003C390F0B4127422741374237421F42370E
:1017B0003C510F0B42273F37070E3E6F0A0E410781
:1017C0004227FDE340074127FDE33F074027FDE3B4
:1017D0003E073F27FDE31D0EEA6E3E0EE96E070E43
:1017E0004315439DE926000EEA22E950420804E130
:1017F000EA501D0801E1438DEF50006E08E143BD42
:1018000006D043B90ED043B702D0200E03D0438791
:101810004399300E00260050B7A2FED70201C96FCF
:101820001D01EE5043ADE1D7000199EF0EF0F86ACB
:10183000D69A0E01550E0201006FAA0E006F00919C
:10184000040E766F260E046F550E006FAA0E006F01
:101850000081FE0E006E200E016E020EE96E050E76
:10186000EA6EEE6A002EFDD7012EFBD70001B06BA9
:10187000AF6BB36B060EB16F600EAD6F046A020101
:10188000D29FC696BE86B00ED16F030ED56F400EA6
:10189000D46FD36BD28F8F0E296E376A366A0401EC
:1018A000006B086B106B186B206B286B0001716B61
:1018B000726B736B706B756B766B776B746BC8EF59
:1018C00003F0170E0401096F000110EF04F0C80EB9
:1018D0001D01486F0001CFEC03F01D013C6B0001BE
:1018E0007AEC05F0050E376E070E366EAA0EF66E10
:1018F000060EF76E000EF86EC7EC05F0050E1D0122
:10190000496F070E486F4A6B4B6B0001A3EC06F062
:10191000050E376E070E366EB20EF66E060EF76EB9
:10192000000EF86EC7EC05F0050E1D01496F070E9D
:10193000486F4A6B030E4B6F0001A3EC06F0050ED7
:10194000376E070E366EBE0EF66E060EF76E000E82
:10195000F86EC7EC05F0050E1D01496F070E486FC4
:10196000030E4A6F060E4B6F0001A3EC06F0C40E87
:10197000F66E060EF76E000EF86ECCEC06F0080E52
:101980001D013C6FFA0E486F0001CFEC03F01D0102
:101990003C2FF8D73C6B00017AEC05F024EF07F000
:1019A000020E1D013C6FC80E486F0001CFEC03F022
:1019B0001D013C2FF8D700014EEF08F0020E1D016B
:1019C0003C6FFA0E486F0001CFEC03F01D013C2F75
:1019D000F8D73C6B00017AEC05F01D01386B396BD0
:1019E0003A6B3B6B286A276AC7883B6BCFB83B2BA7
:1019F0003B2DC4D13853D8A4C1D1140E486F000177
:101A0000CFEC03F0C788CFA8B8D1010E1D01396F04
:101A10003A2B3A51020801E23A6B3A51000A0001AE
:101A200005E0010A37E0030A63E0A7D11D013C6B22
:101A300000017AEC05F0CB96C396D00EF66E060E3A
:101A4000F76E000EF86ECCEC06F0020E1D013C6F36
:101A5000FA0E486F0001CFEC03F01D013C2FF8D7C0
:101A60003A5316E1000110D56100A1F43DFD61007B
:101A70009DF43CFD48D60A0E1D01486F0001CFECD5
:101A800003F0C788CFB802D01D0102D01D01E8D7EE
:101A9000000173D11D013C6B00017AEC05F0CB967F
:101AA000C386640E1D01486F0001CFEC03F0FC0EED
:101AB000F66E060EF76E000EF86ECCEC06F0050E14
:101AC000376E070E366E1A0EF66E070EF76E000EA4
:101AD000F86EC7EC05F0050E1D01496F070E486F43
:101AE000050E4A6F020E4B6F0001A3EC06F045D1C4
:101AF000CB96C386020E1D013C6FFA0E486F0001A3
:101B0000CFEC03F01D013C2FF8D7CB96C396020E05
:101B10003C6FFA0E486F0001CFEC03F01D013C2F23
:101B2000F8D7CB96C386020E3C6FFA0E486F0001C1
:101B3000CFEC03F01D013C2FF8D73C6B00017AEC91
:101B400005F0200EF66E070EF76E000EF86ECCEC68
:101B500006F0066A056A0650285CD8A0D5D004E1D4
:101B60000550275CD8A0D0D0050E376E070E366E14
:101B70003A0EF66E070EF76E000EF86E0C0E1D0193
:101B8000486F00010AEC08F0020EE96E610019F4DA
:101B900049FD610015F448FD0CDC050E1D01496F7F
:101BA000070E486F010E4A6F020E4B6F0001A3EC47
:101BB00006F0D8900534026E0634036E0250380FDA
:101BC000E96E050E0320EA6E6100B1F33DFDED52B2
:101BD0006100BDF33CFD4C0EF66E070EF76E000E75
:101BE000F86E030E1D01486F00013FEC09F0030E73
:101BF000E96E6700F5F449FD6700F1F448FD5FEC1C
:101C000009F0530EF66E070EF76E000EF86E030E17
:101C10001D01486F00013FEC09F0D8900534026EB9
:101C20000634036E0250380FE96E0D0E0320EA6E83
:101C30006100B1F33DFDED526100BDF33CFD580E76
:101C4000F66E070EF76E000EF86E030E1D01486F5C
:101C500000013FEC09F0030EE96E6700F5F449FD61
:101C60006700F1F448FD5FEC09F05F0EF66E070EB9
:101C7000F76E000EF86E030E1D01486F00013FEC79
:101C800009F0D8900534026E0634036E0250380F06
:101C9000E96E150E0320EA6E6100B1F33DFDED52D1
:101CA0006100BDF33CFD640EF66E070EF76E000E8C
:101CB000F86E030E1D01486F00013FEC09F0030EA2
:101CC000E96E6700F5F449FD6700F1F448FD5FEC4B
:101CD00009F06B0EF66E070EF76E000EF86E050E2D
:101CE0001D01486F00013FEC09F0320E1D01486FE5
:101CF0000001CFEC03F01D013C6B00017AEC05F014
:101D0000052AD8B4062A27D7720EF66E070EF76E8C
:101D1000000EF86E0E0E1D01486F00013FEC09F039
:101D2000010EE96E6100A1F43DFD61009DF43CFDF2
:101D30001FD50A0EB7A2FED70201C96F0D0EB7A2BA
:101D4000FED7C96F286A276A050E376E070E366EF2
:101D5000880EF66E070EF76E000EF86E0001C7ECE7
:101D600005F0050E1D01496F070E486F050E4A6FFD
:101D7000020E4B6F0001A3EC06F01D016700EDF4AD
:061D800038FD32D603001D
:020000040030CA
:0A000000ECFF37DF9FFFFFFFFFFF5B
:00000001FF
;PIC18F57Q43
;CRC=6A63  CREATED="18-Aug-25 15:38"
